:020000041000EA
:1000000000B5324B212058609868022188439860DF
:10001000D860186158612E4B002199600221596106
:100020000121F02299502B49196001219960352056
:1000300000F044F80222904214D00621196600F024
:1000400034F8196E01211966002018661A6600F04E
:100050002CF8196E196E196E052000F02FF8012189
:100060000842F9D1002199601B49196000215960AB
:100070001A491B48016001219960EB211966A021F2
:10008000196600F012F800219960164914480160C1
:100090000121996001BC002800D000471248134993
:1000A000086003C880F30888084703B5996A0420EC
:1000B0000142FBD001200142F8D103BD02B5186610
:1000C0001866FFF7F2FF186E186E02BD00000240BE
:1000D000000000180000070000035F00212200005C
:1000E000F4000018222000A00001001008ED00E03C
:1000F00000000000000000000000000074B24E7A12
:1001000000200420F7010010C3010010C5010010F9
:10011000C1010010C1010010C1010010C101001097
:10012000C1010010C1010010C1010010C701001081
:10013000C1010010C1010010C9010010CB01001065
:10014000CD010010CD010010CD010010CD01001037
:10015000CD010010CD010010CD010010CD01001027
:10016000CD010010CD010010CD010010CD01001017
:10017000CD010010CD010010CD010010CD01001007
:10018000CD010010CD010010CD010010CD010010F7
:10019000CD010010CD010010CD010010CD010010E7
:1001A000CD010010CD010010CD010010CD010010D7
:1001B000CD010010CD010010CD010010CD010010C7
:1001C00000BE00BE00BE00BE00BE00BE00F04BF888
:1001D000103800BEF2EB8871D0F5031028F603103A
:1001E0003402001090A31AE700202149086006C8D5
:1001F00081F3088810471F48006800282FD10DA4FC
:100200000ECC002902D000F012F8F9E71A491B4A77
:10021000002000E001C19142FCD1194988471949E9
:1002200088471949884700BEFDE701C901C29A42C3
:10023000FBD3704728F60310C000002008550020AB
:10024000704A04100000042000000420704A0410CA
:1002500000100420001004200000000070470B482C
:1002600029F011FA0047EFF30580C0B27047000093
:1002700008ED00E0000000D008550020BC68032015
:1002800041B30210B96D021009B4021057560000B4
:1002900006005250ABB36053ADF403100600525049
:1002A000861C030289B20310060052505422A29DFC
:1002B000B8F4031005005250DE65F468704A04106B
:1002C000F8B5C046044B10B5002B03D003490448D1
:1002D00000E000BF10BDC04600000000C06200206A
:1002E000C0F60210030010B51000540C520892B270
:1002F000002904D0C00702D40C4817F04BFB9442ED
:1003000006D19C4210D0220009490A4816F0C4FBCD
:100310009C4204D908490748E21A16F0BDFB9A42EC
:1003200002D206490348F1E710BDC046C0F60210EC
:10033000E8F602101C28031021F7021053F70210F0
:10034000F0B50025170087B00C9C0D9E039004911A
:10035000059302950195059B9D4206D1019B039A49
:1003600093423AD2214817F015FB039B9D4211D2CC
:1003700063889B05F6D4019B049A01330193AB007B
:10038000D058FF2263881340012B20D10CF0E0FEEF
:10039000307013E0022321880022C900380019437D
:1003A00009F084F900280DD16388DB0504D5228883
:1003B0000F49104816F070FB63683360013508344C
:1003C0000436C8E7029B406801330293D9E7022B49
:1003D00001D10CF03BFD3060F0E73B68029ADB088E
:1003E000934201D90448BEE707B0F0BD99F7021067
:1003F00082F702101C280310BAF7021070B515001E
:100400001E00040086B08200AA1803A809F026F98D
:100410000B9B290001930A9B2000009303AA330041
:10042000FFF78EFF06B070BD10B5014817F0D4FA83
:10043000D8F7021010B504000161880009F0B6F881
:10044000606110BD10B50400002902D0C06809F039
:10045000E1F8606909F0DEF810BD70B504000D0028
:1004600001290ADC012102694942406992002DF00C
:10047000B5F800232560636070BD406809F096F808
:100480006368E060A360F4E710B5046803004268A5
:100490000020022C01D1D86880188918596010BD3D
:1004A0000368012B03DC426843698900CA50704726
:1004B00042684B1E9B18494219404160704770B515
:1004C0000C001500FFF7E0FF0419002803D170BDF0
:1004D00005702D0A0130A042FAD1F8E710B50C00E2
:1004E0000221FFF7D1FF002802D00470240A4470D3
:1004F00010BD0000F8B5050003290DD80024104BED
:100500005F5CB521090228003943FFF7E7FF261E8B
:100510000DD1AF61EC61F8BD0123023999430C00A4
:10052000FE27EEE728000749FFF7D8FF7F3E7F2E22
:10053000F8D8054928003143FFF7D0FFE9E7C04666
:1005400052F80210FFB0000080B0000070B5C5691D
:100550000400002D07D07F2D0DD8B0210902200006
:100560002943FFF7BBFFBD21A369090220001943FE
:10057000FFF7B4FF70BD20000249FFF7AFFF7F3DDA
:10058000E9E7C0467FB0000070B50D0004211400FB
:10059000FFF77AFF002805D0057084702D0A240A21
:1005A0004570C47070BD10B5DB0011431943FFF7EF
:1005B00095FF10BD10B5072A09D8D20007290BD81E
:1005C0000A438C21C9011143FFF788FF10BD083A87
:1005D000D30040221A43F1E7083911438022EFE7A4
:1005E000F7B50B02FF270E000193140013120A0245
:1005F00080213B401343890119430500FFF76EFF3B
:100600008021F3003343890028001943FFF766FF78
:10061000C021019B3C401C43890128002143FFF776
:100620005DFFF7BD4369890070B5CC58E021050036
:1006300043680902E41A043C23055B0D1943FFF7E4
:100640004DFF2B680120022B08D1E40AE302002CA5
:1006500004D0802212019B185842584170BD70B5D9
:100660000500002083421CD1FF266B699200D458FC
:100670006B680902E41A043C631033400B43D02139
:10068000090228001943FFF729FF01232A681800EF
:10069000022A05D1B44303D0601CFF3042425041CE
:1006A000184070BD4369F822890070B5CC58F0211C
:1006B000050043681202E41A043C63109BB21A431B
:1006C00063025B0D09021943FFF75EFF2B680120EF
:1006D000022B08D1A40DA305002C04D08022D20344
:1006E0009B185842584170BDF8B5476804000E0089
:1006F0001500BB0703D5BF210902FFF7EFFE9021CC
:100700003602C90131432000FFF7E8FE2000064908
:10071000FFF7E4FEA9B22000FFF7E0FE2000290C5D
:10072000FFF7DCFE3800F8BD01E00000F7B5060079
:100730000C00170007290AD8FF239A4307D10C029F
:1007400080213C4389012143FFF7C8FEF7BDFB1719
:10075000FD185D4028002AF07DFE002301900093E3
:100760009F4203D028002AF07BFE0090009A019B54
:1007700094466344172B1AD9154180212302EDB208
:100780001D43890130002943FFF7A8FE009BE100CB
:1007900021439B0130001943FFF7A0FE002FD5DA5B
:1007A0002300220030000A49FFF7FDFECEE72B0CA4
:1007B00005D12A0021003000FFF712FFEEE7002FDD
:1007C00000DA6D422A0021003000FFF78DFFBDE7FF
:1007D00040420000036810B5012B06DDFF230C002A
:1007E0009C4302D0054817F0F7F8C9B212020A4339
:1007F000902109021143FFF771FE10BD1AF8021093
:10080000036810B5012B06DDFF2314009C4302D0C2
:10081000054817F0E1F89823D2B2090211431B02F0
:100820001943FFF75BFE10BD1AF80210A82310B59C
:10083000D2B2090211431B021943FFF74FFE10BD4C
:1008400043699200D358426870B59B1A01221A433B
:100850000C3A0C000500FFF7C3FEB221280023006C
:1008600022000902FFF79FFE802223011340793AFC
:1008700014400349234328001943FFF72FFE70BD9E
:1008800078440000F0B51E000B0007000D001400B6
:1008900085B01343072B0DD81F2E0BD8D4000C4363
:1008A000D021B6013443C90121433800FFF716FEB9
:1008B00005B0F0BDEA0001922A430392072B36D817
:1008C0001F3EFF2332009A434BD13F2E1FD9A54232
:1008D00031D1072401236C40B421A34009021943FC
:1008E00038000293FFF7FAFD21003800B200FFF74D
:1008F00077FEC021019BA4012C431C4349012143E5
:100900003800FFF7EBFDBC21029B090236E0A5424F
:1009100004D0220029003800FFF74CFEC021B600A9
:100920002D022E43890131433800FFF7D7FD1449CA
:10093000039B1943B9E780212B02334389011943F3
:100940003800FFF7CBFD8021039B38001943FFF7E8
:10095000C5FDC021019BA4012C431C434901214337
:10096000E2E7B200A542B4D029003800FFF738FE14
:10097000C021019AAB012B43134349011943D3E72B
:10098000C06F00004369890010B5CC584168611AF6
:100990000439CB0ADB02621C0CD0CA1C0ADA0E4AEC
:1009A000934215D109054B0DE02109021943FFF7C8
:1009B00095FD10BD002BF5D0074A9342F2D0BF2120
:1009C0000902FFF78BFD0134F3D0044817F004F857
:1009D000002BF4D1E6E7C04600F8FFFF3CF8021018
:1009E000436970B515009200D25843680400D31AC9
:1009F000043B0902013211D0DA1C0FDAFF221E007B
:100A00000D489643864209D15B1013400B43D02119
:100A1000090220001943FFF761FD70BD80235B00D0
:100A20004B40D021090220001943FFF757FD290050
:100A30002000FFF7A7FFF0E700FFFFFF043A521086
:100A40000902D2B20A43D02110B509021143FFF7BF
:100A500045FD10BD0B1FE02110B51B055B0D090204
:100A60001943FFF73BFD10BD70B514000B000722C2
:100A700021000500FFF706FF8F21E400C9012800CF
:100A80002143FFF72BFD70BDF0B58DB008930368CF
:100A90000792049342689B6804009B1882890D00AA
:100AA00006925A1C426003221B7801211A400092D0
:100AB000002204200392029201925BB2002B23DBFE
:100AC0002300002120001033A360069BE1819B00DE
:100AD0001A00143005932CF081FD009A069B9B1A96
:100AE000029A09939E1A0423019A371D1340009A13
:100AF000BF00E719AA4200D397E0002B22D12B00B8
:100B00009F49A04815F0C8FF6368019F5E1C66609E
:100B10001B789E110E40964037431E0006409640BB
:100B20000197009F3743DE100E4096400097029FCA
:100B300037431E000E4096400297039F0132374311
:100B40000397BAE7009B03369900089BB600591833
:100B5000009BA619E81A13F087FB009B043F706006
:100B6000089A05999B0061189B180439934200D09C
:100B700086E00823019A1A400A920A9B079A1A43B0
:100B80000223002A00D1D8E0019A00261A400B92D5
:100B9000019A1A4204D007980DF0ECFE0600386066
:100BA0000027049BAD00DB680193089B5D19079B40
:100BB0009F4268D1099D039B05350499AD0003331D
:100BC00062199B00C8181100039E002E00D086E019
:100BD00005990C3B14316118D218914200D987E075
:100BE000009B143D9F00019B6519DF19029BB342D6
:100BF00000D087E00022110013006668701C01908D
:100C0000012501983F2780180090B05C0540954071
:100C1000294345103D40393F5743BD4040B22B4327
:100C2000002800DB98E00132EAE7002B05D003360C
:100C3000554BB600A619043F73600823019A134070
:100C4000079A134314D1009B039A9A1AAA4200D917
:100C500055E7039B009A5B199B1A049A9B00D318D3
:100C60002A0005991031611800980433904201D18F
:100C70002B0075E79000DE6840420E500132F3E72A
:100C800001CA486171E7009B029800221B189C462C
:100C90002968944505D80B9B002B1BD1CA083B49FA
:100CA0000EE0019B90001858884211D1069B013B31
:100CB0009B1A9B00E3185A69002A04D0CA083449D9
:100CC000304815F0E9FE6A685A61013708356EE769
:100CD0000132DEE730006A680DF0C3FEF5E70F6809
:100CE000002F01D107680F60013E043104386CE722
:100CF0000432131F1B68002B00D06EE78A1A921073
:100D00002449DDE72A69002A0FD10A9B3968002BA4
:100D10000FD0039B049804339B001858043008F04C
:100D2000C5FC002805D043682B610136043D04371B
:100D30005CE73A681849D208C2E7029A002A02D052
:100D4000164816F027FE019A1A4200D152E702987F
:100D50000DF010FE38604DE7009AD6188F19B74293
:100D600002D167600DB0F0BD069B5D1E3378013681
:100D7000ED1AAD00651968690CF0FCFF6861EEE7DB
:100D8000E8F602101C280310B840031085F8021082
:100D900056F80210A6F80210D8F8021008F902104E
:100DA00070B505000378E9201C096400800020412B
:100DB00003242040012803D12B195B1B0B6070BD5D
:100DC0006124A3435C426341DCB26B1C02280AD15C
:100DD000002A06D01A0016003678013213007F2E42
:100DE000F9D81B19E9E70328FBD1EB1CF9E7000050
:100DF000030070B5402831D00CD8022083433C2B2F
:100E000008D13B3B622916D8482906D8422955D03B
:100E100048291FD02E4816F0F5FB08001C00493861
:100E2000C0B284402B4804424BD1622946D051299C
:100E3000F0D108200EE06439C9B20D29EAD81C00AF
:100E400092258C406D002C423BD1234D2C42F0D199
:100E50000429DFD1002A00D0136070BD62291BD89D
:100E600048290AD8422928D0022318004829F1D05D
:100E7000013B18009942EDD0CCE7012308001C008B
:100E80004938C0B28440134804421ED1622915D0AB
:100E90005129BFD1082311E06439C9B20D29B9D84D
:100EA000012392208B404000034209D10A480342AB
:100EB00009D10429AED1022300E001231800C9E7BB
:100EC00004230420C6E70823B3E70423F6E7C0465B
:100ED0002FF90210C90400000120000010B55128AC
:100EE00012D8412803D8012823D000231DE042381E
:100EF0000F28FAD82EF05CFB1DF9F9F9F9F9222533
:100F0000F9F925F9F94447316238C3B20F2BECD80F
:100F10000F28EAD82EF04CFB08E92DE928E90F3715
:100F2000E9E937E9E9E9E91A8B5601205B00184342
:100F30000BE08B5CF9E75200535EF6E75200535A20
:100F4000F3E7920050580FF03FF910BDD2008A1815
:100F5000106851680FF0A1F8F7E7D2008A181068FE
:100F600051680FF0B5F8F0E7920050580EF0E0F835
:100F7000EBE7D2008A18106851682AF0D7FDF5E730
:100F800092005058E1E7920050580FF095F8DCE7D6
:100F9000F7B507000C000126002A02D1421E9B185B
:100FA000023E00200021002C06D0002200259A5687
:100FB000D40F00216042A941002211E0040E0094E8
:100FC0000C020194040225001C780132A4462C0076
:100FD00065462C432000009D019C9B192543290058
:100FE000BA42EBD103B0F0BDF0B585B0019203AACF
:100FF00004000D001F001E68FFF7FAFE402C09D107
:10100000039B019A043CB61A5A1EB6185B421E4056
:10101000019B9E195A2133183E3C3B60A9428941ED
:1010200063425C4149423300E2B2FFF7B1FF060080
:101030000F004F2D07D0532D07D12EF011FB0100CB
:10104000300011F0F1FA05B0F0BD662D03D0642D2B
:1010500004D12AF06BFD0EF06BF8F4E75A2D13D98A
:1010600080220023D20592197B4130001100002B11
:1010700006D180231B06994202D20FF01DF8E2E749
:1010800039000FF00AF8DEE7002906D18023DB05DE
:10109000984202D20FF098F8D5E739000FF018F80F
:1010A000D1E713B5040001931000002904D12200F8
:1010B00001A92CF099FA13BD01AB1A190419A04229
:1010C000F9D0013A117801700130F8E7F0B589B034
:1010D0001F000E9B140005AA1D6801900291FFF7E6
:1010E00087FE019B0600402B08D1059BED1B5A1E75
:1010F000AD185B421D403C237D1901930E9AAB193C
:101100001360019B3E3B03935F425F41029BFFB232
:10111000642B12D0662B0BD04F2B2CD13000042E19
:1011200000D9042023002A003900FFF7BAFF2EE07F
:1011300020000BF005FF0400F0E720000BF000FF9B
:101140002BF082FC1024BB00069007911B1904AA07
:101150009B18083B2A001B6839000420FFF7A1FFF9
:10116000039B04355A1E93419B001B1904AA9B182C
:10117000083B1C68D2E7A3070BD10F4B22689A42A9
:1011800007D12B003200390020000EF037FF09B0E4
:10119000F0BD20000BF05AFE0400042EBED9C1178A
:1011A00032002800C9B22CF019FA019B3E2BB5D1B0
:1011B000331FED18B2E7C046502E031070B50C0077
:1011C000712807D8612806D801281DD04238C1B23D
:1011D0000F290DD970BD62380F28FBD82EF0E8F921
:1011E00014FA25FA1FFA162DFAFA2DFAFAFAFA1954
:1011F0000F28EFD82EF0DCF908EEEEEEEEEE0A2125
:10120000EEEE21EEEEEE210DA354E3E75200135370
:10121000E0E7D200A2181360DB175360DAE718008A
:1012200095002BF0A1FB6051D4E7D20018008C1878
:101230002AF034FC20606160CCE792001351C9E7CA
:10124000F7B506000F0014001D0064280DD06628B5
:1012500004D04F2813D19400E35105E09400180006
:101260000C190BF06DFE2060F7BDD40018000C19AE
:101270000BF066FE2BF0E8FB20606160F4E70323CF
:101280002A001A4001921D4211D10E4B2A689A423F
:101290000DD10100019A4020FFF7AAFD230043432E
:1012A000020001992800FB180EF0A8FEDCE72800D8
:1012B0000BF0CCFD2200030039003000FFF77EFF69
:1012C000D2E7C046502E0310D02212061268024BFD
:1012D0009200D0587047C046205C002073B50C00C7
:1012E00001A9206811F03AFD0500606811F008FDC1
:1012F00029000023019A08F027F90500A06811F0E1
:10130000FFFC512807D00E4B984214D0502814D01F
:101310000C4816F077F90126082008F047F90A4B27
:10132000040003600023310028001A0015F0B1FC0E
:101330006060200076BD0026EEE70226ECE7C0469E
:10134000BB0200003CF9021074F90210F0B591B034
:1013500007000E000392FFF7B7FF03690293C3680B
:101360000193012F44D97468062C09D0A30704D136
:101370002F4B226825009A4204D0002016F00AFB69
:10138000019D029C022F09D0B368062B06D09A0754
:10139000F3D1274A19681D009142EED10327366820
:1013A0003E4233D1234B32689A422FD10461FFF77A
:1013B0008BFF7368C5603B4204D11F4A1968914294
:1013C00000D15C6004A80BF07BFC002813D170688E
:1013D00015F058FC04000BF067FCFFF775FF029B4B
:1013E0000361FFF771FF019BC360200011B0F0BDE6
:1013F000019D029CD2E7FFF767FF029B0361FFF7A5
:1014000063FF019BC36005980BF06EFC0122300066
:1014100004A90BF09FFF0023059A0499EC2008F023
:1014200093F822002B00039915F033FC0400DCE74D
:101430006C21031074F90210242A031010B5022243
:10144000FFF784FF10BD10B50122FFF77FFF10BD2D
:10145000F0B587B0002806D15749584809F078FE02
:10146000062007B0F0BD0E68554B9E4261D10021A9
:1014700008000FF0B8FA002405000390514B5A6899
:10148000944219D3039F504E3578002D20D14F4AF6
:1014900003A901200FF004F9039805AA04A90FF08D
:1014A000B9FA049B03339B080193019B434EAB4263
:1014B0001DD130004649D1E79B68E200D158002990
:1014C00004D0042902D028000FF02CF80134D5E70D
:1014D00030002EF0C5F8C11E0400300011F0A4F851
:1014E0000134010038000FF01DF83619CCE72F0049
:1014F000059BBA00D05811F019FC0100300009F02A
:1015000027FE019BFF18049B9F420CD212231C1A3A
:10151000002C06DD013CEBD330002E4909F018FE0B
:10152000F8E71234F4E730002B4909F011FE0135D9
:10153000BBE730000BF0FEFB0400204D27492800DC
:1015400009F006FE002130000BF022FC2800E288A2
:1015500023490AF095F9234B9C4224D17468043442
:10156000002663689E4200D37AE7A368F2009B18C6
:101570001F68002F15D05B681B492800019309F0F4
:10158000E7FD002138000BF003FC1849280009F0A2
:10159000DFFD002101980BF0FBFB28000E4909F04C
:1015A000D7FD0136DDE7124B9C4200D13400A36B1E
:1015B0001C1D002BD4D153E778A80310401503104D
:1015C000821200009C30031044E7031054210310E2
:1015D000B0F90210AC4A0310A84A0310D4F9021063
:1015E000DCF90210883103100F960310ECF9021099
:1015F000C8430310D02212061268024B9200D05842
:101600007047C046205C002010B5040007F014FBB2
:10161000002802D120001CF057FA10BD10B50400BC
:1016200017F041F9FFF7F0FF02280ED061686D2234
:101630000239200017F0A2F9200017F034F9FFF763
:10164000E3FF023843425841400010BD10B504008A
:1016500017F029F9FFF7D8FF012806D02000034929
:1016600017F080F92000FFF7D9FF10BD74BA0310FE
:1016700030B504008FB010000D0014F0E7FD022219
:10168000C000B7210243200015F06AFCFFF7B2FF4B
:10169000036964680093FFF7ADFFC3680193FFF728
:1016A000A9FF0461FFF7A6FFC46002A80BF008FBC6
:1016B000011E11D10200280003F09CFF15F0E2FA90
:1016C0000BF0F2FAFFF796FF009C0461FFF792FF20
:1016D000019CC4600FB030BDFFF78CFF009C04611B
:1016E000FFF788FF019CC46003980BF0FDFA73B507
:1016F0000E000500080017F0D6F8716801AA040072
:1017000007F0C0FA022805D1220001992800FFF74E
:10171000AFFF73BD73682000E318033B1B786D2B8C
:1017200004D114F06FFC22000100EFE707F019FF6D
:10173000022204000368B721DB0028001A4315F0D9
:101740000FFC6A6801211300200015F0A2FAE0E7FF
:10175000F0B5AFB00C6800AF03280AD9CB687B6046
:10176000042846D00B695D10002B05DA002015F027
:1017700049FF062300257B6018232000F91811F08B
:10178000EDFA7861002D67D0FFF734FFBA210069C8
:101790000DF0D8F8013D0400C308152B06D1FFF762
:1017A00029FFAA2100690DF0CDF80400FFF722FF00
:1017B00000690022B949043007F078FF182220237D
:1017C0009B18D9190600200011F0C8FABC6B010063
:1017D0000419002E05D1A14203D2013C23782E2BFF
:1017E000F9D1013D0BD2A1420CD1AD49AD4815F064
:1017F00049F90025C0E7013C23782E2BF1D0A14206
:10180000F9D3EEE7BE69641A3C61002E02D0731C66
:101810001B193B616A463B690733DB08DB00D31ABF
:101820009D466D46220028002BF0DEFE002E07D0DC
:101830002E23601C320079692B5528182BF0D4FE1A
:101840003969280014F052FC0224C3001C4314F030
:1018500010FD3B697861BB61BB69002B86D020001D
:1018600011F04EFA0FF0D6FA051E14D02E21786929
:101870002DF016FE00280AD07B68062B07D17B6965
:10188000C11A180014F032FC0FF0C4FA0500280049
:10189000BD462FB0F0BD1820202301261B18DA19F1
:1018A000283B1B188021D81916F0A0FF3D60FD6071
:1018B000BB69B34204D27B68062BE8D03D68E6E7FB
:1018C000B34203D07B699B5D2E2B67D131007869D1
:1018D00014F00CFCFC6AB860002C00D09DE01822CB
:1018E00008239B18DA19043BF9186F480FF092F897
:1018F000FB69002B54D0002318200C213A6AFB62AC
:101900000918A3009858C91911F028FA7A6A010039
:10191000002A0CD0182010231B18D81916F024FF09
:10192000102318229B182F21D81916F0D2FF182047
:1019300010231B18D8193200796916F015FF1822E8
:1019400010239B18D819FFF781FE3861002838D181
:10195000FB6901349C42CED3BB69B3426AD178693A
:101960000FF026FA041E65D00100B8680FF03CFAAB
:101970003B68002B0CD0FB68F11A18007B699C4671
:10198000604414F0B3FB22000100386815F0E8FA57
:10199000002D00D12500731CFB603C60013687E7F9
:1019A0003200102479691823E018C01916F0DCFE03
:1019B0001823E318D819FFF749FE38613B69002B5B
:1019C000CAD0B8680FF026FA041ED1D1B8680FF05B
:1019D000BFF9BB690400B34231D17B680E2B2ED115
:1019E0003B69012B2ED0AA22BA2140680DF039F8AC
:1019F0002200AA212D480DF034F8BB68AA21DA0094
:101A0000022360681A430DF02CF8182210239B184B
:101A10002000D919FFF76BFEAAE718231024E2185B
:101A20002F21D01916F055FFFB68F968F21A7B696F
:101A30005918B8E71E491B48BA6815F02DF83B69DC
:101A4000012BE2D1F96A386B10F0EEFDCA210200D9
:101A5000200015F085FAFB6A18223B6110239B18C1
:101A6000D8192F2116F035FF182210239B18D819EA
:101A7000104916F077FF102318229B18D819FFF78A
:101A8000CDFD022806D1102318229B182000D91959
:101A9000FFF72DFE3B69FB626AE7C0465206000075
:101AA00000FA02105C240310E86000208860002027
:101AB0001EFA021069BB031007B5CA216A4614F06A
:101AC0006DFF0098431E9841C0B20EBD426A0B00E4
:101AD000528B012A02D00169C9180161704710B503
:101AE0000400C36A806ADB6F9847A38B626A013384
:101AF0009BB2A383D18C994200D2D38410BD10B580
:101B00000400838B013B8383C36A806A0833DB6FE5
:101B1000984701212000FFF7D9FF10BDF7B5070056
:101B20000C001E0000290DD003230D001D4019429A
:101B300011D14B68D9B291420DD11B0A0193019B7F
:101B40009D4200DBF7BD2300AA00083338009958F6
:101B5000B0470135F3E721003800B047F2E7F0B5B0
:101B600089B004000D0005920693002B03D00823D2
:101B70000A8B13430B833022059B2B84636A198BDA
:101B80000A431A831B78002B44D1E36A2900B4333B
:101B90001E68059A069BA06AB04709B0F0BDD26ADC
:101BA000FB00D118D35C0791043B012B1FD8002305
:101BB00018E0049BEA6ADB00D018D35C052B0FD138
:101BC000079B5968436899420AD1079BA06A5A88C3
:101BD000E36A5B691E000023B047039B0133039354
:101BE000049B01330493049A6B8D9342E1DC01372B
:101BF000626A538DBB42D2DC039AE36AA06A002A70
:101C0000C3D0069AB83300921C682900059B039A3A
:101C1000A047C2E700270397EAE70000F8B50F00E6
:101C200011001A000023040085794669837143611D
:101C30000F4BFFF773FFA368002B18D1E18A00292F
:101C40000BD0A28A002A08D1E36AA06AA0331B68DD
:101C50009847E36AA06A5B6C9847A38A3900200022
:101C6000E28AFFF77CFF6B1E9D416661A571F8BD9E
:101C70004534001010B59D22024B8968FFF74EFFD6
:101C800010BDC0461941001010B56B22024B896887
:101C9000FFF744FF10BDC0468523001010B50400B7
:101CA000C36A002188331B68806A9847E36AA06A88
:101CB00010215B6B9847E36AA06ACC331B68012153
:101CC000984703212000FFF701FF10BD70B5040005
:101CD000C36A00229B6C806A9847E36AA06AC0339B
:101CE0001D6800231A001900A8472000FFF7D6FF3F
:101CF00070BD10B5C36A896800225B6D806A0909EE
:101D0000984710BD10B5C36A89681B6C806A9847F4
:101D100010BD10B5040008001100226815F088FFFE
:101D2000636A436000238360236A002B01D1206231
:101D300010BD1A009B68002BFBD19060F8E770B5CE
:101D4000437904000D00012B06D1436A0A005B8B26
:101D50000221FFF7DEFF2861AA6829694C232000D1
:101D6000FFF75CFF70BD70B51300427905000C00F1
:101D7000012A04D10A000721FFF7CBFFA061A66961
:101D8000280031004623E268FFF748FFF08A70BD63
:101D9000F0B589B005000C0000AF002902D1012187
:101DA000116018E0032319401C421CD1636839619B
:101DB000DBB2682B07D1E3681B091360A468012319
:101DC000002CECD03B610F232340022B0DD13B694B
:101DD0002109002BE4D0EB6A00221B6BA86A98470C
:101DE000BD4609B0F0BD0023ECE73B69002B02D1F2
:101DF000A3681B091360002663681B0ABB60013BD4
:101E0000FB60BB689E421DDB6A46FB680733DB084C
:101E1000DB00D31A9D461E003B6000237B617B697B
:101E2000BA6893421ADBF968386814F05FF9EB6A14
:101E300001001B6B0022A86A98473B69002BCFD09A
:101E4000012632E02300B200083398580136000919
:101E500014F00AFAFB68C318FB60D2E77B69002B19
:101E600002D02E23337001367B699A002300083399
:101E700098581C230009F91814F000FAFB690100B6
:101E80001A0030007B602BF0AFFB7B68F6187B6993
:101E90000133C3E72300B20008339958EB6A0022EC
:101EA0005B6DA86A090998470136BB689E42F1DB61
:101EB00096E7002906D00323C2680B40134301D1E3
:101EC0000B68C36070470000836870B50D000400A4
:101ED0001100002B07D104480CF05AFF2900A06024
:101EE0002000FFF7E6FF70BDA4270310F0B50D003A
:101EF0004162002142712B7891B0059204008A4A18
:101F00000161072B2ED1059B012B06D00200436BEC
:101F100005991B68006B083298476379EF68032BBB
:101F200010D1380046210FAA0C302DF051FB636B05
:101F300001009B680F9A206B9847A368A883002B29
:101F400000D0BAE03969002944D00F250D40022D98
:101F50003CD10B09752B3FD009D83E2B3ED05E2BD0
:101F600009D0724A2000FFF7AFFF11B0F0BD704AF0
:101F700003259342F5D17B6919210EAA0DA80D9373
:101F80002DF026FB00230A900993099B0A9A93429D
:101F900026D16379012B15D9636B29005B68206B0F
:101FA00098476379042B0DD10023606A039502934F
:101FB000818B226B0191009393680521D26800699F
:101FC00003F0FFFAA368002B77D1CEE72000594A2F
:101FD000FFF77AFF0225CEE70025CCE70125CAE707
:101FE000099B9B000693069A0E9B9958FF224B680B
:101FF0001340082B02D1099B0133C5E7052B01D003
:102000004D4AAFE7CB68002BFAD1FF208B685A68A6
:1020100002402C2AF4D19E681D3A3240022AEFD1A8
:10202000DB680893002BEBD09B07E9D1089B5B682A
:102030000340302BE4D10898A4210FAA08302DF0DA
:10204000C7FA8923360907909B009E421CD10128BC
:1020500005D10F210F9A13680B40022B04D0374A89
:102060000E9B069959587DE721694B1C2361059BFE
:10207000012B1ED01268636B206BDB681209984736
:10208000002816D12E4AEBE78423FF339E4217D156
:10209000079B012B04D10F9B1968079B194201D1A3
:1020A000284ADDE7059B012B03D0206B4910FEF782
:1020B000FFF9A368002B9ED0089F3B68E36054E7BC
:1020C000BC23FF339E4222D1079B012B06D9012658
:1020D00001220F9B1B681E40134201D11A4ABFE721
:1020E000059A012AE5D05B100B930F9BB200D258E2
:1020F00001231A4201D1154AB2E70B99206B521005
:10210000FEF7DDF9079B0136B342EED1D1E7059B1F
:10211000012BCED0636B31001B69079A9C46206B64
:1021200066460F9BB047C4E740FA021064FA0210FB
:10213000F702000071FA021099FA0210BCFA0210BC
:10214000D8FA0210E8FA021004FB021029FB021070
:1021500010B5024AFFF7B8FE10BDC0464BFB021097
:102160004B6870B5DBB20400092B10D1058B094B0D
:102170009D4203D12000084AFFF7A6FEE38BA28B05
:102180002900D21AE36AA06A9B6F984770BD458BFD
:10219000EDE7C046FFFF000068FB021070B50026A7
:1021A0000500B14210D00F230B40022B0ED10C09B9
:1021B00020000AF03DFD061E06DA22000549064809
:1021C0000CF070FE0026A860300070BD034AFFF7D7
:1021D0007BFEF9E788FB0210D028031078FA021082
:1021E00010B5040062790B00406A012A02D115F093
:1021F0005EFD10BDE16A02001431A06A03F0A7F988
:10220000F7E710B50B004179426A012904D11900A2
:10221000100003F08EF910BDC16A806A1C3103F012
:1022200096F9F8E710B5436A04005A8BFFF79BFD57
:1022300001002000FFF7E5FF10BD00000F23F0B5FF
:102240008E6804000D0085B033400E2B0BD00021AA
:102250008E4216D00323310019401E422ED17368DE
:10226000DBB2652B1CD102960026652103AA02A8C9
:102270002DF0AEF90021039B80003F4AC018834235
:1022800014D13E4BEA689A4236D1636A1F78002F18
:1022900016D0290020003A4AFFF716FE05B0F0BD1F
:1022A000622BEED1B3680293F668DEE71F689742AF
:1022B00002D101310433E2E70331FBE70021E0E71B
:1022C000E36AA06A9B6B9847E36AA06A0521DB6B0F
:1022D0009847E36A3A00A0331B68A06A0121984737
:1022E0003100200003AAFFF753FDE36A0222390000
:1022F0001B6BA06A9847D1E7E36AA06A9B6B98477B
:1023000028006A210C3002AA2DF062F9002705008E
:10231000E36AA06AAF4211D1A033002229001B68F2
:1023200098473100200003AAFFF732FD0026E36A38
:10233000A06AAE420BD11B6E9847AFE7029AB90074
:102340008A58DB6B9168013709099847E0E7029AE0
:10235000B1008F581B6BBA681209019201990122D2
:102360009847F968002905D101992000FFF749FF36
:102370000136DCE70909F8E7DE0500002E0400005D
:102380009AFB021037B504000D00C36A00219B6B55
:10239000806A9847E36AA06A5B6B1021984729001E
:1023A000200001AAFFF7F4FC20000199FFF729FFA4
:1023B00037BD10B50B004179426A012904D11900DB
:1023C000100003F0B6F810BDC16A806A243103F032
:1023D000BEF8F8E737B504000D1E16D0CB0705D5BB
:1023E000C36A49109B6BA06A98470EE08B072DD0FB
:1023F0000F2308090B40062B08D00A2B0AD0022B0A
:102400001CD101002000FFF7EBFE37BDE36A01009D
:10241000DB6BE8E76379042B03D0E36A06211B6CCE
:10242000E1E701A913F02AFFE36A0199A46A1D6C90
:1024300010F0A0F901002000A847E6E70628E4D044
:10244000E36AC1B25B6BA06A9847DEE7C36A0968BA
:102450001B69806A98476B68034ADBB29B002900BE
:1024600020009B58C0E7C04668FE0210F7B5040084
:1024700003200D00160001420DD00F230B40022B4C
:1024800014D120000909F60702D4FFF7BAFEF7BD00
:10249000FFF7A6FEFBE74A68FF2713003B402D2B02
:1024A0007AD009D8062B0CD02C2B11D02900200073
:1024B000544AFFF709FDEAE72E2B00D185E09D2B5A
:1024C000F4D1002EF2D12B00120A0833002184E04F
:1024D000022E03D020008968FFF77CFFEB68009391
:1024E000002BE3D00323009A00991A401942DDD152
:1024F0004B680F00D9B28E2909D11B0A170001932E
:10250000022E1AD1019B009A01339B009F587B68D1
:10251000DBB2312B26D1022E14D1E36AA06A9B6E66
:102520009847E36A01211B6D19E0009BBA0008334C
:1025300020009958FFF74EFF0137019B013B9F4256
:10254000F3DBDFE72000B968FFF744FFE36A012E01
:10255000E8D1DB6DA06A98470021E36A1B6DA06A91
:10256000984794E7322BA1D1E36AA06A012E09D1E2
:102570009B6D98470022E36AB9685B6D0909A06A00
:10258000984784E7022E01D15B6E9847B968E36AE9
:1025900001225B6D0909F2E78868002886D0002EC9
:1025A00084D1C168002929D003230A001A401942A6
:1025B00024D14E681300F7B2952F04D0962F1AD16C
:1025C0000B00320A0833816807E0002E00D06DE767
:1025D0008968002905D10B000A00200000F014F8DA
:1025E00055E7014204D14B6808003B40922BD8D0FC
:1025F00000231A00F1E7AC2F00D157E703000222B5
:10260000083363E7B7FB0210F0B587B003920A0006
:102610001F00531E9A4104000E1E0492009239D0EE
:1026200003230D001D40194234D14B68DBB2222B2D
:1026300030D1C36A2900B0331B68039A806A984777
:10264000039B0597013B0193049B0293019B01337C
:1026500023D16B1C47D1049B039AA06A9918E36AA3
:10266000AC331B689847002E47D1039B049E9C46C1
:102670006644009BB34234D0009B00223968AB42D1
:1026800000D189682000FFF7F1FE009B0437013379
:102690000093EEE701256D42D2E7059B19680029FA
:1026A00011D0032319420ED1FF224B681340222B75
:1026B00009D1013511D1E36A019AB0331B6802993F
:1026C000A06A9847029D029B01330293019B013B44
:1026D0000193059B04330593B8E72000084AFFF7F0
:1026E000F3FB07B0F0BD002EBFD0002D05D12A00AE
:1026F000B1682000FFF7BAFEB7E700223100F8E723
:10270000D2FB0210F0B504000D0017001E0085B0CA
:1027100028002CF0E5FE002805D0002F20D1E36A28
:102720003100DB6E4FE028002CF07AFE002802D04A
:10273000002F15D0F3E7002D54D003231D4251D1B3
:102740006B681A0A0292FF2213401E2B20D1002F21
:1027500022D0029B9B005B190193019BAB420FD1DE
:1027600005B0F0BD29000122019B083198000958ED
:10277000039B20007A40FFF7C5FF019B013310E067
:10278000A96833003A002000FFF7BCFF0435E4E7F6
:102790001F2B1BD1002FDCD023690393013323614E
:1027A00000230193029B019A013B9342DADC0299D8
:1027B00033000131890049593A002000FFF7A2FF98
:1027C000E36A0399DB6AA06A9847C9E7202B03D123
:1027D0001F3BAD685F409BE72D2B03D1AB68002BFF
:1027E000A6D19AE729002000FFF7F4FDE36A320042
:1027F00039001B6FA06A9847B2E7F7B504000D00D7
:1028000006690193B31C0361C36A3100DB6A806A05
:1028100000929847E36A771C8C3339001B68A06AE2
:102820009847A96800222000FFF720FE2D69002D9F
:102830002DD100992000FFF7CDFD636A1978E36A76
:1028400006291CD1CC331B682900A06A98472000B8
:102850000121FFF73BF9E36AA06A1B6E9847E36A20
:102860003100A06ADB6E9847E36A3900A06ADB6A30
:102870009847E36AA06A90331B689847F7BD019AAE
:10288000A83392001B68A06A05329847E7E7FF2249
:102890006B681340AD2B07D1A968330000222000DC
:1028A000FFF730FFED68C2E72000E968FFF792FD0F
:1028B000E36AA06A883301211B689847019B2900BD
:1028C0002000009A0133FFF798FFC8E7F7B50D0025
:1028D00000260400C36A427111001B682A00456289
:1028E0000661806A984706212000FFF7EFF86779B4
:1028F000012F00D16E62EE68002E0FD0B3070DD10C
:102900007368DBB23F2B09D12000B168FFF762FD8D
:10291000E36AA06AC4331B6898472DE02B78002B2C
:1029200009D131002000FFF755FDE36A10215B6BF0
:10293000A06A9847ECE7072B23D1012F12D100237F
:10294000A37146225E4B2000F168FFF7E7F86B8B1E
:10295000032B07D120003169FFF720FC8301288B6E
:102960001843288320007169FFF734FDE36AA06AE9
:102970009B6898470028D8D0E36AA06A5B689847AC
:10298000F7BD022B1BD1E36A31681B69A06A984727
:102990006379012B07D10023A3714C222000494BFE
:1029A000B168FFF7BBF82000F168FFF713FD2B8B30
:1029B000DB07ADD5E36AA06A1B6E9847B5E7033B1A
:1029C000032B4FD8F3680193012F05D1032239005F
:1029D000606A15F06CF9AF83E36A31681B69A06A1D
:1029E00098472B78032B24D10122E36AA0331B687C
:1029F0000021A06A98472B78062B28D1E36AA06AA9
:102A00005B6C984701212000FFF7EAFBE36AA06AAC
:102A10005B6C9847E36AA06A5B6C984700232000D0
:102A2000B2680199FFF7E9FE2B78062B00D06FE71B
:102A30007BE7042B04D1E36A0222A0331B68D7E7AB
:102A4000052BD8D1E36A0322A0331B68D0E720000E
:102A50000121FFF7C5FBE36A012188331B68A06AE7
:102A60009847DBE7012F04D103220A21280015F043
:102A70001EF917212000FFF7B3FB16212000FFF7F6
:102A8000C0FBB168E36AA06ADB6B090998471A21A9
:102A90002000FFF7B6FB20003169FFF79BFC0A21FD
:102AA000280015F0F4F80278E36A032A00D13DE724
:102AB00042885D690A210023A06AA84728E7C0462A
:102AC0003D48001049480010436A70B51B78040067
:102AD000072B05D0022B03D0144AFFF7F5F970BD80
:102AE0008D68002D0FD1E36A10215B6BA06A9847B7
:102AF000E36AA06ACC3300211B68984701212000BB
:102B0000FEF7E4FFEBE7AB070BD16B68DBB2AF2B53
:102B100007D12000A968FFF75DFC2000FFF7BEF891
:102B2000DDE729002000FFF755FCE1E7ECFB021090
:102B30000F2370B50B4004000D001600022B02D0CD
:102B40000B4AFFF7C1F931002000FFF743FCE36AAD
:102B5000A06A9B6D9847666A3378033B032B01D8C4
:102B60007368636229092000FFF74BFB666270BD42
:102B7000B7FB021010B5CA688968FFF7D9FF10BD0E
:102B800070B5437904001500CE68012B06D1436A65
:102B90000A005B8B2900FFF7BCF87061002320005E
:102BA00071691A00FEF7DBFF2000F168FFF712FCE5
:102BB000062D05D1E36A002188331B68A06A984777
:102BC000E36A0121BC331D680023A06A1A00A847EC
:102BD00070BD0000F0B58BB0079106920400A421EF
:102BE00009AA07A81E002CF0F3FC00231F00059083
:102BF0000293049303930193029B059A93421ED17F
:102C0000002F0FD0039B002B00D07EE0E36AA06A68
:102C10005B6C9847049B002B00D07CE0E36AA06AC1
:102C20005B6C9847069AE36AA06A002A00D178E0B4
:102C3000C0331C6831003B00019AA04715E0029A9E
:102C4000099B9200D558002D51D003231D424ED12F
:102C5000FF226B681340A62B0FD1A53B1F4206D065
:102C6000314A29002000FFF72FF90BB0F0BD1F43B8
:102C70000395029B01330293BEE7A72B07D1A53B27
:102C80001F4201D0294AECE71F430495F1E7A82B26
:102C90002DD1EA68002A10D0A53B1A420DD1FF21A0
:102CA00053680B40AA2B06D120009268A968FFF751
:102CB0003FFF0136DDE7AC2B13D00F23A9680B4093
:102CC000022B01D01A4ACCE7E36AA06ADB6B090940
:102CD00098472000E968FFF77DFB019B01330193D2
:102CE000C7E7062229002000FFF74AFFE1E7002F8F
:102CF00001D0104AB5E7019B002B01D00E4AB0E786
:102D000029002000FFF766FBD3E7039B20009968AA
:102D1000FFF760FB7EE7049B20009968FFF75AFBF2
:102D200080E7BC3385E7C04605FC02101CFC02109E
:102D300034FC021055FC021070FC021070B50D003E
:102D4000417904001300012903D12A00FEF7E1FFB5
:102D50006861E36AA06ADB6C984700236E691A0019
:102D600031002000FEF7FBFEE36AF18ADB6BA06A0C
:102D70009847E968002909D003230A001A4019423C
:102D800004D14B68DBB2A32B00D111002000022339
:102D90000022FFF71FFFF08A70BD10B5436A0400E0
:102DA0005A8BFFF7CBFF01002000FFF72AFA10BD76
:102DB000002310B51A008968FFF70CFF10BD70B52D
:102DC0000D000400C968FFF705FBA9682000FFF7A4
:102DD00001FB70BD4B6870B5DBB204000D00342BF5
:102DE00011D18968FFF7F6FAED68AD68002D10D1B2
:102DF000E36A10215B6BA06A9847E36A0422A03360
:102E000002211B6819E0C36A10215B6B806A984736
:102E1000EBE70326354225D16B68DBB29A2B0FD145
:102E2000E36A10215B6BA06A9847A968002910D15A
:102E30000422E36A0231A0331B68A06A984770BD80
:102E40009B2B0FD1A9682000FFF7C4FAEB689968A3
:102E5000ECE72000FFF7BEFAE36A0422A03331005A
:102E60001B68EAE729002000FFF7B4FAC5E710B5B0
:102E700004008968FFF7AEFAE36A00211B6DA06ABF
:102E8000984710BDF0B58D6887B004000292002D00
:102E900009D1002A26D002222900C36AA0331B6868
:102EA000A06A98471EE003272B003B4001933D4258
:102EB00000D08FE0FF266B683340372B14D1029B84
:102EC000002B06D0C36A0222A03301211B68806A4E
:102ED000984720002900FFF77DFAE36AA06AA4332F
:102EE0001B68984707B0F0BD9F2B73D1E868436813
:102EF0003340A12B5ED1A221083005AA2CF068FB3B
:102F0000A9680390002926D0394224D14B68334068
:102F1000372B20D1029B002B06D0E36A411CA03343
:102F200002221B68A06A98472000A968FFF752FA9E
:102F3000E36AA06AA4331B6898470127019B039AA0
:102F400093420DD1002FCDD11900E36A0322A033A3
:102F50001B680131A4E72000FFF73CFA0027EDE7EA
:102F60000026019A059B9200D158B14208D0032354
:102F7000194205D14E68FC331E40373E73425E4114
:102F80002000FFF727FA002F10D0002E05D1164A97
:102F900029002000FEF798FFA4E7E36AA06AA433A3
:102FA0001B689847019B01330193C7E7002EF9D0B6
:102FB0000E4AEDE7AB68002B06D03B4204D15B68BC
:102FC00004223340372B00D0052229002000FFF7D0
:102FD000D7FD87E729002000FFF7FCF9E36A032209
:102FE000A03301211B685BE792FC0210AFFC0210CA
:102FF00010B50122FFF746FF10BDF7B5002604000B
:103000001500B14202D0FFF7E5F90136002D07D0D7
:1030100000276B681B0A0193019B9F4208DBF6188F
:10302000E36A3100A03300221B68A06A9847F7BD0D
:103030002B00BA00083320009958FFF7CBF901376D
:10304000EAE7896810B50A1E0DD0CA68002A15D0B3
:10305000032314001C401A4210D15368DBB2952B95
:1030600004D122008968FFF7C8FF06E0962BF9D04B
:10307000AC2B03D10622FFF783FD10BD0A0000210F
:10308000F1E710B50A000021FFF7B7FF10BD0000FF
:10309000F7B50D0089680400FFF79CF9EE68002E73
:1030A0002FD07368DAB28E2A2CD02E0001230C3672
:1030B00000930F22616AAB68097800251A4007293E
:1030C00000D07AE0022A50D11A099A2A00D076E07C
:1030D00031684A68D2B2302A00D070E08A68AA42C9
:1030E00000D06CE00A212000FFF77AF80121626A23
:1030F000D36A528D002A09D12000474A3168FEF771
:10310000E3FEF7BD1B0A00930836D2E75878084261
:1031100010D059682000FFF763F8009AE36A022A8A
:103120000BD8BC331D68002302211A00A06AA847EF
:1031300001251AE0013A0833DCE7FF2071684A688C
:103140000240322AEDD1B5686A680240302AE8D1DF
:1031500089689B6CA06A09092F3A9847A9680023DF
:1031600001222000FFF736FD0325009BAB42C8D9A2
:103170006B1C009801936A1CAB00F158824245D247
:10318000FF204A680240322A40D1F3185F687B680A
:103190000340302B3AD18968E36A00229B6CA06A15
:1031A00009099847002301222000B968FFF712FDA2
:1031B000019D0135D9E70025D7E7022AD5D146225E
:1031C000FF3200251B099342CFD13168463A4B6844
:1031D0001340302BC9D18B68AB42C6D003211D00F0
:1031E0000D400B42E7D15B6813402F2BBDD1E36A42
:1031F0002A00BC3329001F68A06A2B00B847336837
:103200002A0020009968FFF73DFE91E72000FFF7B4
:10321000E1F80195CCE7C046CEFC0210436A10B538
:103220001B780400072B05D0022B03D0054AFEF7BC
:103230004BFE10BD2000FFF72BFF2000FEF72EFDF8
:10324000F7E7C046E6FC021070B50D00C96804003F
:10325000FFF7C0F8AB6802211B09DBB2342B01D0A9
:10326000403BD9B2E36AA06A98331B68984770BDA7
:10327000F8B54F680C00896805000026FFF7AAF82A
:103280003F0A0C340236B74200DCF8BD6168280002
:10329000FFF7A0F82168EB6A090925399C331B6800
:1032A000A86AC9B298470834ECE7F7B54B680D0037
:1032B0001F0089681B0A040001930126FFF78AF8A2
:1032C0000D3FFFB2019B9E4200DBF7BD2B00B20019
:1032D000083399582000FFF77DF8E36A39009C33E2
:1032E0001B68A06A98470136ECE7F7B54B680D00FC
:1032F0001B0A896800930400FFF76CF8009B002705
:10330000032B02D927697B1C236101260C3501950B
:10331000009A731C9A4221DC032A1EDD2569A06AEB
:103320006B1C2361E36A2900DB6E9847E36A39006E
:10333000DB6AA06A9847E36A0121DB68A06A9847C4
:10334000E36AA06A5B6E9847E36AA06A1B6E9847BF
:10335000E36A2900DB6AA06A9847F7BD019B200059
:103360005968FFF737F8009B02369E4207DAE36A96
:10337000A06A9B6D9847E36AA06A9B6E98470F22EC
:10338000019BA06A1968E36A0A409C331B680E2AF5
:1033900014D10909CAB20621262A01D0353AD1B280
:1033A0009847009B9E4205DAE36A3A0000215B6F72
:1033B000A06A9847019B08330193A9E7FF254A6853
:1033C0002A40852A01D13221EAE78A680721002AAA
:1033D000E6D03321E4E710B504008968FEF7FAFF70
:1033E000E36A032198331B68A06A984710BDF7B5BC
:1033F0004A680E00D3B21E3B59424B4104000025DF
:103400000769DBB201937B1C0361130A0093009BE5
:103410009D4205DBE36A3900DB6AA06A9847F7BD85
:103420003300AA00083399582000FEF7D3FF009B11
:1034300001359D42EEDAE36A3A005B6F0199A06ABA
:103440009847E4E70F2370B50B400400022B11D01E
:103450004B68DBB2492B01D04F2B02D10123A37162
:1034600070BD4A2BFCD0502BFAD0482B0DD10D69E2
:10347000002D0CD1A379002BF2D1E38A002BEFD0E1
:1034800020001D4AFEF720FDEAE7CD68F0E7A379AA
:103490008E68002B27D0A38A01339BB2A382012B15
:1034A0000FD1E18AE36AA06A002919D0A033002273
:1034B0001B689847E36A0222A03300211B68A06AB8
:1034C000984729002000FEF785FFE36AA06ADB6BBE
:1034D00031099847E36AA06AA4331B689847BFE79D
:1034E0005B6C9847E6E7E38A290001332000E3821A
:1034F000FEF770FFB4E7C046FFFC0210F7B504000A
:103500000E000569CF686B1C0193AB1C0022B968E3
:1035100003612B00FFF7F6F8B1682000FEF75AFFB1
:10352000E36A691CA06ADB6E9847E36A2900A06A17
:10353000DB6A98470121E36AA06ADB684942984741
:10354000F9682000FEF746FFE36A0199DB6AA06A8A
:103550009847F7BDF0B585B004001F0001910292B5
:10356000002904D13900FEF735FF05B0F0BD06692A
:10357000731C0361029B1D68002D2CD003232A00BD
:103580001A4003921D4226D16B68DBB27B2B22D1FD
:10359000A968FEF71FFF31002000039AFEF79FFA8B
:1035A0002000039AE968FEF761FF029A019904324C
:1035B0003B0020000139FFF7CDFFE36A31000433FF
:1035C000DB6FA06A984720000321FEF77FFA2000F6
:1035D000FEF795FAC9E729002000FEF7FBFE200060
:1035E00000223100FEF77BFAE36AA06A1B6E98475F
:1035F000DBE737B5050008000C0001AA7A21083086
:103600002BF0E6FFE3680100019A2800FFF7A2FF14
:1036100037BD0000F0B504000F001E00056987B03B
:103620006B1C0593AB1C0361290004920122FEF779
:1036300056FA39002000FEF7CDFEE36A00229433EB
:103640001B68A06A691C9847E36A2900DB6AA06AC4
:103650009847E36AA06AD0331B689847236937000C
:1036600001930133236100230093009B049A93424A
:1036700016DB2000FEF743FAE36AA06AD4331B6826
:103680009847E36A0599DB6AA06A984720000C997D
:10369000FEF7A0FEE36A0199DB6AA06A984752E050
:1036A0003B6803932369029301332361039B9E6864
:1036B000009B01330093002E47D1049B009A934254
:1036C00039D10025E36AA06A1B6E98472E00039B40
:1036D0002000D968FEF77EFE002D19D0E36A102184
:1036E0005B6BA06A9847E36A3100DB6AA06A98477F
:1036F000E36A10215B6BA06A984729002000FEF75F
:1037000080FD20002900FEF754FE2000FEF7F7F9A7
:10371000E36A012294331B680199A06A9847E36A1F
:103720000299DB6AA06A9847E36A0121DB68A06A14
:103730009847043799E720001D4A3968FEF7C4FB13
:103740002000FEF7DCF907B0F0BD03250323354068
:103750001E422BD1FF21736832000B40762B02D121
:10376000D568B6682D09E36AA06A9B6D9847310059
:103770002000FEF72FFEE36A08219C331B68A06A35
:103780009847E36A00211B6F029AA06A9847002DB0
:1037900097D029002000FEF734FD26690222731C11
:1037A000310020002361FEF79AF990E70025DAE75F
:1037B0002DFD0210F0B5076985B003937B1C160040
:1037C0000D000222390003610400FEF788F9002E83
:1037D00021D1E36A0321DB68A06A98472900200011
:1037E000FEF7F8FD0321E36AA06ADB6849429847C7
:1037F000E36AA06A10215B6B9847E36A3900DB6AD1
:10380000A06A984720000B99FEF7E4FD2000FEF720
:1038100076F905B0F0BD0A9B320000932900200024
:10382000039BFFF7F7FEE3E77FB5CE6805007368FB
:103830000C00DBB2782B09D10022B368009201930F
:1038400013002800A168FFF7B5FF7FBD742B17D1C7
:10385000300003AA772108302BF0BAFE336902004A
:10386000002B07D1F36800932800039BA168FFF7A2
:10387000D1FEEAE79B680193F3680093039BE0E7BE
:10388000080003AA77210C302BF0A2FE00230200CF
:10389000E9E70000F0B58A680D00CB680F2104004D
:1038A0008BB00A40022A00D000E1002B00D1FDE0DD
:1038B0000132134200D0F9E0FF205A6802402C2A5E
:1038C00000D0F3E09A681140022900D0EEE012091E
:1038D0007C2A00D0EAE0DA6853680340302B00D03D
:1038E000E4E09368A23109AA08A808932BF070FEBF
:1038F000431E022B00D9D9E0099B1E68012800D184
:10390000C7E0022800D11DE19A680192D20700D4D5
:10391000CCE0019A521000D1C8E05F68002E07D0B9
:10392000B30705D17368DBB2A63B022B00D8BDE01C
:10393000002F07D0BB0705D17B68DBB2A63B022B6B
:1039400000D8B3E0AB683A0004932B6905936B6928
:1039500025690393A36925830793E38B06936B1C67
:103960006383A38BE3832B1D236101231A400292FF
:103970001F4203D139002000FEF72CFD310020004A
:10398000FEF728FDE36AA06ADB6EE91C9847E36A4C
:10399000A91CDB6AA06A9847E36AA06A9B6D9847F6
:1039A000002220000499FEF761FD20000599FEF732
:1039B00011FDE36AA06ADB6A691C9847200001993F
:1039C000FEF708FDE36A0E219C331B68A06A984746
:1039D000E36AA06ADB6AE91C9847029AE36A002A54
:1039E0005CD1DB6DA06A9847E36AA06A5B6E98477A
:1039F000E36A019A9C3300211B68A06A002A00DA5E
:103A0000012100269847E36A01211B6FA06AAA1CC6
:103A10009847079BA361069BE383039BB3421ED099
:103A2000E36AA06A1B6E9847029BB34203D1E36A24
:103A3000A06A1B6E984720000399FEF7CBFC26690D
:103A4000A06A731C2361E36A3100DB6E9847012191
:103A5000029BA06A5940E36A0131DB689847E36A38
:103A60002900DB6AA06A9847E36AA06A1B6E984740
:103A7000029B002B03D1E36AA06A1B6E9847039B4D
:103A8000002B04D0E36A3100DB6AA06A98470BB0D0
:103A9000F0BD032337000193060049E7A06A9B6D40
:103AA000984739002000FEF795FCA1E7A369266935
:103AB0000293E38B771C0193B31C0393A38B200029
:103AC000E383224BE96833432383F31C2361678339
:103AD000FEF780FCE36A012188331B68A06A9847DF
:103AE000E36A3900DB6AA06A9847E36AA06A8C330C
:103AF0001B68B11C984700222000A968FEF7B6FC9D
:103B000020002969FEF766FCE36AA06A9B68984773
:103B1000002804D1E36A3900DB6EA06A9847E36AA3
:103B2000B11CA06ADB6A9847E36AA06A90331B68FD
:103B30009847029B2000A361019B6969E383FEF71C
:103B400049FC9FE703220192E7E6C0460080FFFFA1
:103B5000F0B5836985B003930669C38B771C029324
:103B6000B31C0361838B040006834783C383886887
:103B70000D002BF0B5FC002821D12369A868019322
:103B8000013323612BF04CFC002804D1E36A390097
:103B9000DB6EA06A9847E36A0199DB6AA06A9847DE
:103BA0002000E968FEF716FCE36A3900DB6AA06AC8
:103BB000984701222000019BA968FEF7A3FD039B03
:103BC0002000A361029B2969E383FEF703FCE36AFB
:103BD0003100DB6AA06A984705B0F0BDF0B5066910
:103BE0000400731C036187B088680D002BF078FC1B
:103BF000021E26D1276920007B1CA96823613B0097
:103C0000FEF780FD2000E968FEF7E4FBA8682BF0D2
:103C100007FC002826D12B69002B02D16B69002BF1
:103C20000AD0E36AA06A9B689847002804D1E36A37
:103C30003100DB6EA06A9847E36A3900DB6AA06A4C
:103C400098472800712105AA10302BF0C1FC0023F1
:103C500003900193019B039A93420AD12000696962
:103C6000FEF7B8FBE36A3100DB6AA06A984707B049
:103C7000F0BD019A059B9200D758B8682BF030FC34
:103C8000021E21D12369200002930133B968236108
:103C9000029BFEF737FD2000F968FEF79BFBB86832
:103CA0002BF0BEFB0028DDD1E36AA06A9B68984731
:103CB000002804D1E36A3100DB6EA06A9847E36A0A
:103CC0000299DB6AA06A9847019B0133C1E7F0B50E
:103CD00087B00400019102920393002904D1039953
:103CE000FEF778FB07B0F0BD0669731C0493B31CA4
:103CF0000093331D0361029BF71C1D68002D00D14A
:103D0000F0E003232A001A4005921D4200D0E9E0AA
:103D10006B68DBB27B2B00D0E4E0A968FEF75AFBAE
:103D2000E36AA06A9B6D9847A8212000FDF7CEFFAB
:103D30002000059AE968FEF799FB02223100200075
:103D4000FDF7CDFEE36AA06A0321DB689847029A7B
:103D5000019904322000039B0139FFF7B8FF0321CA
:103D6000E36AA06ADB6849429847E36A1021A06AC7
:103D70005B6B9847E36AA06A5B6E9847E36AA06A48
:103D8000711CDB6E9847E36A3100A06ADB6A9847D2
:103D9000E36AA06A9B6D9847E36A0122A06A212129
:103DA0009B699847E36AA06A9C3308211B6898477F
:103DB000E36A009A0021A06A1B6F9847E36AA06A31
:103DC0009B6D9847E36AA06A9B6E9847E36AA06A76
:103DD0005B6E9847E36A0022A921A06A9B6C984712
:103DE000E36AA06A9B6E9847E36AA06A9B6E984755
:103DF000E36AA06A9B6D9847E36A00220A21A06AE1
:103E00005B6D9847E36AA06A5B6E9847E36AA06AB5
:103E100010215B6B9847E36A0321C0331D680023C0
:103E2000A06A1A00A8472000FDF738FFE36A3A00AD
:103E30000021A06A1B6F9847E36AA06A1B6E98472F
:103E4000E36AA06A10215B6B9847E36A3900A06AB5
:103E5000DB6E9847E36AA06A0221DB689847E36A51
:103E60000099A06ADB6A9847E36AA06A9B6E98474C
:103E7000E36AA06A9B6E9847E36A0499A06ADB6ACA
:103E80009847E36A0022A06AA9219B6C9847E36ADD
:103E90001021A06A5B6B9847E36AA06A9B6D984704
:103EA000E36AA06A9B6D9847E36A0321C0331D68EB
:103EB0000023A06A1A00A8472000FDF7EFFEE36A7E
:103EC000A06A1B6E98470121E36AA06ADB68494239
:103ED0009847E36AA06A3900DB6A98472000FDF73B
:103EE0000EFEFFE629002000FEF774FAE36AA06ADE
:103EF0009B6D98472000A821FDF7E8FEE36AA06AC1
:103F00001B6E984719E70000F0B58D6804006B68D8
:103F100087B0DBB2032B09D12900FEF783F9012317
:103F2000AA69118B0B43138307B0F0BD0121426ACC
:103F3000128B0A4204D129005D4AFDF7C5FFF3E761
:103F4000162B00D0A7E0E96806690B090193331D21
:103F50000361FEF73FFAE36AA06A0022AA219B6C84
:103F60009847E36AA06AC0331B681F0000231A0049
:103F70001900B84720000199FEF743F9A369A06A28
:103F80000393E38B029323691F00013300933B00EB
:103F900002332361009B00996383A38B2783E38310
:103FA000E36ADB6A984701222000B118FDF797FD0C
:103FB00020000199FEF714F92000AC21FDF786FEE0
:103FC0002000A9680022FEF751FAE36A0022943328
:103FD000A06AB11C1B689847E36A711CA06ADB6A7F
:103FE0009847E36AA06AD0331B689847E36AA06ADF
:103FF0009B6D98475E21E36A0122A06A9B69FF31AD
:104000009847E36AA06A9C3308211B689847E36AD3
:10401000F21C0021A06A1B6F9847E36AA06A1B6E1E
:104020009847E36A012294333100A06A1B689847DD
:10403000E36AA06AF11CDB6A9847E36A0121DB6846
:10404000A06A98472000FDF75AFDE36AA06AD433BE
:104050001B689847E36AA06ADB6AB11C9847200096
:104060002969FEF7B7F9E36A0099A06ADB6E984701
:10407000039B3100A361029BA06AE383E36ADB6ACE
:10408000984720006969FEF7A5F9E36A3900DB6A01
:10409000A06A984748E7280005AA7A2108302BF043
:1040A00097FAEB680100059A2000FFF710FE3BE746
:1040B0004BFD021070B58D680400002D06D129005B
:1040C000C36AC8331B68A06A984770BDAB070FD19D
:1040D0006B68DBB25E2B0BD1A968FEF77BF9E96850
:1040E0002000FEF777F9E36A0221C8331B68EAE78C
:1040F00029002000FEF76EF9E36A0121C8331B682E
:10410000E1E710B504008968FEF764F9E36AA06A84
:104110001B6E984710BD0000F7B505000C00032783
:104120000F232340022B04D128002109FEF741F977
:10413000F7BD002C6FD03C426DD1FF226368134065
:104140002C2B3CD12800A168FEF744F9E668002E2C
:1041500061D0310039403E425DD1FF2072683300AA
:1041600010408E280AD10F00130A0193019B013BD6
:10417000BB4211DC019B01339B009B595A68D2B2B0
:10418000312A12D128009968FEF724F9EB6A02213E
:104190001B6DA86A9847CBE73300BA0008332800A4
:1041A0009958FEF717F90137E0E7322A33D19968B9
:1041B000EB6AA86A5B6D0909303A9847B8E72D2B7E
:1041C00029D1A468002C26D0E668002E1DD03E42DE
:1041D0001BD17268D2331340952B01D1A4689FE79D
:1041E000962B10D1A1682800170A0024FFF794FF2E
:1041F000BC429DDA3300A200083328009958FFF72B
:104200008BFF0134F4E7AC2B05D0A1682800FFF741
:1042100083FFE46884E721002800024AFDF754FE8A
:1042200086E7C04671FD0210F7B5CD6804000E00A8
:10423000002D27D10379002B17D0436A1D78002D5C
:1042400013D1CF21FDF7CCFFB1682000FEF7C2F8F3
:10425000E36A2A00BC331E6801212B00A06AB04724
:10426000E36AA06A1B6E9847B3E0B1688B0700D180
:10427000A7E00F230B40022B00D0AAE02000FEF79E
:10428000A9F8EDE70322154251D16B68D9B25B2939
:1042900011D1ED68002D4AD1406A0378072B00D078
:1042A00097E0B16808330B40022B00D091E0090978
:1042B00013F0FDFC8DE0562913D10122B168FEF701
:1042C000D5F82000E968FEF785F8A968E36A0909CE
:1042D0003F399C331B68A06AC9B298470222B16873
:1042E00065E0572923D11B0A5F1E01339B005959F2
:1042F000FEF770F8002F03DDE36AA06A9B6D984714
:10430000B16800222000FEF7B1F80026BE4260DA54
:104310000136BE4203DAE36AA06A9B6D9847291D05
:10432000B30000222000C958FEF7A0F8EEE70320F2
:10433000054240D16B68FF211A0001930A40062A0A
:1043400039D1B768002F36D0074234D17A681300CC
:104350000B40062B2FD1019B120A1B0A93422AD134
:10436000022B28D1BB68002B05D0034203D15B6828
:104370000B40222B1FD0FB68002B05D09A0703D1DE
:104380005B68DBB2222B16D02000A968FEF722F86A
:10439000E9682000FEF71EF8E36AA06A5B6E9847A2
:1043A0000022B9682000FEF761F80022F9682000B9
:1043B000FEF75CF80DE029002000FEF70BF8002264
:1043C0008DE7002900D159E74B68DBB23A2B00D0CA
:1043D00054E7F7BDF0B50400080089B00591083036
:1043E000422106AA2BF0F4F80027636A02905D8B45
:1043F0000197029B9F420BD1059BD9684B68DBB2AA
:10440000032B51D12A002000FDF7ADFC050059E037
:10441000069BBA00D3586C21180007AA08300393F2
:104420002BF0D6F8079B049019680A09732A0ED05E
:104430002000FDF7CFFF0126049B9E4229D3039B5A
:10444000D96800290DD02000FDF7C4FF09E0049AC7
:10445000022A08D02000294AFDF736FD019B0133CE
:1044600001930137C5E759680B09412B0BD0244A4A
:1044700093420AD0234A934209D0813AFF3A9342A9
:10448000E8D10425EAE70125E8E70225E6E7032568
:10449000E4E7079BB200D158E36A00225B6DA06A93
:1044A000090998470136C7E7442B17D18E682A00BF
:1044B00031002000FDF757FC01230500B269118B84
:1044C0000B4313830026029B019A9B1AB3420AD81E
:1044D00029002000FDF795FE09B0F0BD2A0020005C
:1044E000FEF72CFC92E7E36A0121BC331F6800232E
:1044F000A06A1A00B8470136E5E7C04689FD0210F8
:10450000590200000E030000F8B505000E0000245B
:104510004F683F0ABC420FDA3300A20008339958B3
:104520002800FDF757FFAB68002B06D00234A4002B
:104530002800A159FDF7BDFCF8BD0134EAE710B52C
:104540000400FFF7E1FFE36A22219C331B68A06AA5
:10455000984710BD70B58D680400002D07D1012269
:104560002900C36AA0331B68A06A984730E0032281
:1045700015423CD1FF216B680B40922B37D1EE687E
:10458000002E26D0164224D173680B40952B09D1FA
:10459000A9682000FDF71EFF0122E36A1100A03385
:1045A0001B68E1E7962B0ED1A968FDF713FF3100D8
:1045B0002000FFF7A9FF7168E36A090AA03301220E
:1045C0001B680131D0E7AC2B03D12900FEF7D8FAE4
:1045D00070BD2000A968FDF7FDFEE9682000FDF729
:1045E000F9FEE36A0122A03302211B68BCE729001F
:1045F000CFE70000DE22F8B5174B52009F580400A9
:104600000D00002F27D10669BC3A731C036189682D
:104610003300FF3AFEF776F8E36A1F2101229B6917
:10462000A06A9847E96800290AD02000FDF7D2FE69
:10463000E36A3A00BC331D6801213B00A06AA84729
:10464000E36A0121C8331B68A06A9847E36A310016
:10465000DB6AA06A9847F8BD40600020436A10B545
:104660001B780400072B03D00A4AFDF72DFC10BD70
:10467000896800290AD1C36A10315B6B806A984748
:10468000E36AA06AC4331B689847F0E7FDF7A2FE0F
:10469000F6E7C046A7FD0210F0B5437904000D000F
:1046A00085B0012B0BD14B68DBB20093102B08D0E7
:1046B000436A1B78002B04D1204AFDF705FC05B0A6
:1046C000F0BD28006D2103AA08302AF081FF0027E1
:1046D0000190019BBB42F2D0039BBA00D158606AA3
:1046E0000022090913F0E3FA009A06000378102A61
:1046F0000FD10E3A9343124A17D102233370416807
:10470000606A13F0F5FA002801D002230370013724
:10471000DFE7002B0ED1013303700100606A13F054
:10472000F0FA3378074A012BF1D129002000FDF778
:10473000CBFBECE7052BEAD0034AF6E7C1FD0210FC
:10474000E6FD021005FE021023FE0210F7B504007C
:10475000406A0192028B9C46170002230D001F4005
:104760001A4205D0334A29002000FDF7ADFBF7BD02
:104770000F263140022917D1A2792909002A03D036
:10478000C38B0133C38303E01700838B013383831F
:1047900001260029EBD0002213F089FA037800905B
:1047A000002B2FD0244ADEE76968019EC9B22F0092
:1047B000B14208D1A968A3790909002BE0D1838B04
:1047C00001338383E4E7614516D1A379002BC9D176
:1047D0000121A171A9680029C9D004270F263A43F5
:1047E0000E400283022E03D1F9401F000326D0E7BA
:1047F0000F0089680909F9E7A96813430526090923
:104800000383C6E70323009A13705670636A5B8BB9
:10481000032BACD1019B482BA9D1002FA7D020009E
:10482000F968FDF7BBFC009A0301507818435070FB
:104830009DE7C04644FE021053FE021010B5492306
:104840004822FFF783FF10BD10B54F234E22FFF71C
:104850007DFF10BDF0B5140097B00D00342200218B
:10486000059009A828F0BAFE08AB1C710123E022CC
:104870005B420E93B74B089552009B5C059A002152
:10488000126808A8FDF745FA070000F03CFEB24B9D
:10489000109C13930023029012900193002C02D0DD
:1048A0000A9D002D1ED0109C002C02D00A9B002BCC
:1048B00037D000250199029800F02AFE109C0A9E2C
:1048C000002C00D127E1002E00D1DEE0119C08A8C9
:1048D000E168FDF7EEFA3000E38A0B9A08990AF0D6
:1048E0001BFB1BE1638B0122210008A8042B08D1CC
:1048F000FDF7FCFA0C9B019A9A4200D20193A4683E
:10490000CCE7FDF7E3FF638D9D42F3D2E26AEB0053
:10491000D118D35C012B02D1200013F0F2F901353C
:10492000F1E70421228B0A4215D0618D01394A1C1E
:1049300011D00225E26AC80012185078284225D00A
:10494000002B08D0596815008C46186842CD42C328
:1049500063461060536000256584638D03939D4218
:104960001ADB00230120039A9A4244D16568002D86
:104970000AD000226B8D0793130007998A4249DB06
:1049800000220125934275D1A4688DE7002BCDD17B
:104990000128CBD11300C9E7E66AEB00F6182378AB
:1049A000012B04D173680A2B10D10135D5E7327879
:1049B000012B0BD9012A09D102233370638B032BFE
:1049C00013D01022238B1343238302E03378022B6E
:1049D000F4D03378032B03D0012273781342E4D050
:1049E000638C5A1C62847380DFE7706808F020F9DA
:1049F0000128EEDCE5E7E16ADA008D188A5C042A1A
:104A000006D16A78024203D1628C6A8001326284E4
:104A10000133A8E7E86AD1004618415C06960439DC
:104A2000012918D8002111E00499E66AC80031185C
:104A3000305C8C46052807D106994E686146486867
:104A4000864201D14B8001330499013104910498CD
:104A500003998142E8D101328FE7E06AD10046181C
:104A6000415C052902D17178294202D07188C918A8
:104A70007180013203999142EFD1A28B9BB29A18B7
:104A8000A283628C9B1863847EE7638B042B19D10D
:104A9000149B002B03D1019801F08EF91490002390
:104AA00012932E4B0322210008A81593FDF71EFA3E
:104AB0000A9B002B04D10422210008A8FDF716FA56
:104AC000A468FCE6023B012B20D8002D05D1019AF9
:104AD0000CA90AA803F0F4FD0500214B12951393CD
:104AE0000222210008A8FDF7F1FE0A9B002BE7D166
:104AF0000322210008A8FDF7E9FE0A9B002BDFD165
:104B00000422210008A8FDF7E1FED9E7029B1293D9
:104B1000114B1393E4E7002E00D0D7E6029800F083
:104B2000FFFC002D02D0280003F0E8FD14980028B7
:104B300001D001F056F905982AF032FD3C693800A1
:104B4000BF6813F09BF8002FF9D10A98002809D00C
:104B500008F0CAF84060002054FF0210EC01031076
:104B6000A00403103A003900200000F043FD17B004
:104B7000F0BDC0468079431E9841C0B2704743796A
:104B8000012B09D08368C918C36881609A8C91424F
:104B900000DD9984002383717047042110B54942D8
:104BA000FFF7EDFF10BD10B50421FFF7E8FF10BDC2
:104BB000032110B54942FFF7E2FF10BD026A03006E
:104BC00040798918032802D8180019627047186BB9
:104BD0008018FAE710B50C000121FFF7EFFF047011
:104BE00010BD826A030040798918032802D8180092
:104BF00099627047586A1218186B8018F8E710B558
:104C00000C000121FFF7EDFF047010BD70B504002A
:104C10001500FFF7B4FF01212000FFF7E2FF057048
:104C200070BD10B553220121FFF7F0FF10BD10B584
:104C300054220121FFF7EAFF10BD10B557220121D0
:104C4000FFF7E4FF10BD10B558220221FFF7DEFF89
:104C500010BD012110B559224942FFF7D7FF10BD01
:104C600010B55A220021FFF7D1FF10BD10B55B220D
:104C70000021FFF7CBFF10BD012110B55D22494295
:104C8000FFF7C4FF10BD5E2210B5002901D003213B
:104C90000132FFF7BBFF10BD0A0010B5303A00210A
:104CA000D2B2FFF7B3FF10BD022110B56222494214
:104CB000FFF7ACFF10BD012110B56322494204008B
:104CC000FFF7A4FF0123A37110BD0A0010B56432E1
:104CD000D2B24942FFF79AFF10BD0A0010B5040096
:104CE0006732D2B24942FFF791FF0123E268118B8C
:104CF0000B43138310BD70B5060015001C00FFF7B1
:104D00003EFF30000321FFF76CFF4470240A05705A
:104D1000847070BD0B0010B5012A07D0022A0BD198
:104D2000012167324942FFF771FF10BD11001B32AC
:104D3000D2B2FFF7E0FFF8E701214942F7E710B5EB
:104D40000B0010220121FFF7D6FF10BD10B5113264
:104D50000B000121D2B2FFF7CEFF10BD10B5140039
:104D60000B00012164001432D2B2091BFFF7C3FF0C
:104D700010BD0B00012110B51632D2B24942FFF727
:104D8000BAFF10BD10B519320B000021D2B2FFF7E7
:104D9000B2FF10BDF8B505001F001600FFF7EFFECB
:104DA0006B790024032B06D9EB69AA6A064CBF0075
:104DB000FB58A41AE41828000321FFF712FF4470DF
:104DC000241206708470F8BDFD7F000010B50B0042
:104DD00042220021FFF7DEFF10BDF8B505001F00DD
:104DE0001600FFF7CCFE6B790024032B06D9EB6984
:104DF000AA6ABF00FB58033CA41AE4182800032148
:104E0000FFF7EFFE4470240A06708470F8BD10B5F9
:104E100014000B0061424C414732D2B26100FFF7EF
:104E2000DCFF10BD10B50B004B220121FFF7D5FFB1
:104E300010BD10B50B004A220021FFF7CEFF10BDB8
:104E4000F7B5DE22224B52009B5805000191022B40
:104E500029D84769B94226D9846A0269CF1BA41AA6
:104E6000062F01D90F2C1FD900941F2C01D91F2305
:104E70000093009B0026A34203D33E00032F00D9DA
:104E8000032601212800FFF799FE009A73011343BE
:104E90000370009BBF1BE41A23003B43E0D1AB6AC5
:104EA0002B61019B6B61F7BD80233E001B019F427C
:104EB00000D3084E02212800FFF780FE702233093C
:104EC00013402343F03A1343037046700094E0E725
:104ED00040600020FF07000070B504000D000021B5
:104EE000FFF74DFE6379012B05D0032B03D8A26A8F
:104EF000E369AD00EA5070BD70B50D000400111EED
:104F000005D12B0013222000FFF7F5FE70BD022A09
:104F100004D1FFF786FE2000FFF7A2FE02212B003E
:104F200018224942EFE710B50400002905D15522A7
:104F300001392000FFF76AFE10BD022904D1FFF7F6
:104F400070FE2000FFF792FE032156224942F0E74F
:104F5000130010B54322002900D144220121494207
:104F6000FFF718FF10BD130010B54522002900D12E
:104F7000462201214942FFF70DFF10BDF8B5164F3B
:104F800005000C0016000F40002A17D124040ED58E
:104F90005921FFF734FE59212800FFF730FE59212F
:104FA0002800FFF72CFE59212800FFF728FE3B00C0
:104FB000422200212800FFF7EDFEF8BD3B00402211
:104FC0000021FFF7E7FE7F23210A994331432800A0
:104FD000C9B2FFF714FEF0E7FF7FFFFF70B50400D2
:104FE000322913D00025332901D101352C39293933
:104FF000CAB2012120004942FFF708FE002D04D06B
:10500000D32200212000FFF701FE70BD01250621FB
:10501000EDE770B543790400012B26D0002500216F
:10502000FFF7D8FD626B236AA5639B1A6363E06890
:10503000438D9D421AD3A38FE3876379032B24D139
:10504000A36A206AE3626062C01804F0CEFAE368E3
:105050002063988BDB8BC018A38FC018A31CDB8F39
:10506000C018800004F0C1FA606470BDC26AEB0031
:10507000D118D35C042B06D120008978FFF7AAFD54
:10508000A36B0133A3630135D1E7042BEDD1038B6F
:10509000626C216B006900F086FAE6E70B001033C2
:1050A000F7B506000D003F2B06D80A00803A012113
:1050B000D2B2FFF7ABFDF7BD01212222FFF7A6FD1B
:1050C0006B465C1D21007F202F0022000740EBB2C1
:1050D000013CED1127706F1C012FF5D840273B4094
:1050E000013514D1002B02D1013C2070941E3000F8
:1050F000091BFFF776FD80260200230001AD7642F2
:10510000AB420AD16A4612791B1BC254D3E7002B6B
:10511000EDD00023013C2370E8E7197801333143D7
:1051200011700132ECE773B51D000600FFF76EFD4C
:105130006B465C1D21007F222B00013C1340237035
:10514000ED09F9D13000091BFFF74BFD8026020065
:10515000230001AD7642AB4204D16A4612791B1B93
:10516000C25473BD19780133314311700132F2E733
:10517000F8B51D00C368861C9C8BDB8BE418C38FBD
:10518000E418F38F5F1CF7871B194479042C02D1B4
:10519000446C9E003551FFF7C6FFF8BD110010B5F5
:1051A000002B07D10F2A05D8503A0121D2B2FFF7C0
:1051B0002DFD10BD2433DAB20B000121FFF7B3FF40
:1051C000F7E7110010B5002B08D10F2A06D80121EE
:1051D000403AD2B24942FFF719FD10BD2633DAB288
:1051E0000B0001214942FFF79EFFF6E7110010B5C1
:1051F0002833DAB20B000021FFF795FF10BD10B580
:1052000001240B002100022A00D0E11A2A32D2B276
:10521000FFF789FF10BD1300002210B51400032909
:1052200005D001321400042901D000220134D31822
:105230009B00D1432F222343FFF775FF10BD10B50C
:105240000B0030220139FFF76EFF10BD10B51302BD
:105250000B4389183122FFF766FF10BD70B5049D1E
:10526000D2B26C002D02E4182B43059D002D02D014
:105270000132D2B20234091BFFF755FF70BD07B5EA
:10528000019300920B0034220021FFF7E7FF07BDD6
:1052900013B50124019300920B0036226142FFF7FF
:1052A000DDFF13BD70B5040018000B690499D5B279
:1052B00008430AD10121891A20222000FFF758FF54
:1052C00029002000FFF79BFC70BDD1432122F4E7A9
:1052D00010B51C000B69224304D101213232FFF7C3
:1052E00047FF10BD012133224942F8E710B50E29CE
:1052F00013D1C3689A8BDB8BD218838F591C9B18F0
:1053000042798187042A03D1416C074C9A0054509A
:1053100023220121FFF707FF10BD4131CAB201214D
:10532000FFF774FCF8E7C046B836031070B5040008
:105330000D001021FFF7DAFF29002000FFF7CCFD58
:105340005C2220000221FFF761FC04212000494279
:10535000FFF715FC70BD10B5C3689A8BDB8BD218B4
:10536000838F5C1C9B1842798487042A02D1426C8B
:105370009C00A15023220121FFF7D5FE10BDF0B5FE
:1053800087B000230591417101211500836083716D
:10539000C2600361416183620362528CAB8C040082
:1053A000D218002A00D10A000F23298B7820194037
:1053B000EB8BEF8C03932B8CAE8B04930423029125
:1053C000B9001940013B3340013A1943D30003406F
:1053D0001943130901937F08B608019B029A3B43C6
:1053E0001343039A33431343049A134340D12000D9
:1053F000FFF7F0FB059B022B17D97E260127A36B35
:10540000626B180051005B08920931403840A36379
:1054100001436263134301D0802319432000FFF747
:10542000D9FBA36B626B1343E9D1236A0221636347
:105430002000EE8AFFF7C2FB0670360A4670022192
:105440002000AE8AFFF7BAFB00230670A21C360AC2
:105450004670A387D387059A042A52D1A98BEA8B79
:105460008A180192019A9A424BD00021688D44E03B
:1054700080235B421943C9B22000FFF7ABFB029BBC
:105480003022990140231940019B1B01134019430D
:105490000123049A134008221943039BDB001340A5
:1054A0001943043AB30013401943023A7B001340F6
:1054B0001943019B7F08D3400193029B76085B0848
:1054C0000293039B5B080393049B5B08049384E7AC
:1054D000EE6A0127B446CA00624456783E420BD0B9
:1054E00056889E4208D152680226616CD20098000C
:1054F000324342500133B5E701318842E8DC0522EE
:10550000F2E707B0F0BD10B5482004F06EF810BD0A
:1055100010B504008161880004F048F8E06110BD16
:1055200010B50400C06904F075F8200004F072F8AA
:1055300010BD10B50400012212F0B9FB2378012B35
:1055400004D90378012B01D10233037010BD70B56B
:1055500005000E00100019001C0012F098FB0378E3
:10556000012B05D10022736821002800984770BDE7
:10557000022B02D101227368F6E736684288032BBA
:1055800004D1002321002800B047F0E70123F9E708
:1055900010B5102004F029F8072302789A43063B3F
:1055A0001343037010BD10B57F241C400223E40098
:1055B000234304884160A40AA40223430380826039
:1055C00010BD10B5FE24049BA400DB00234007247B
:1055D00021401943039B42609B020B430168DB029D
:1055E000490D4905DB0A0B430360029B8360059B61
:1055F000C36010BD70B50400237808005B0711007C
:1056000065685B0F042B0BD8022B0BD9A3682A000B
:105610000AF0F8F823881B0714D50B4B036011E040
:10562000052B08D0A3682A000AF0BAF823881B07C4
:1056300008D5064BF2E720682900C002E268400D59
:105640000AF0E8F870BDC046542D0310182D031061
:10565000802370B50C005B00194015000A001C4245
:1056600001D06A682968FFF7C5FF0222E3091A40E2
:105670009200AA18E1B208F0CFFB70BDF8B51F0088
:105680000F2305000E001B4C1340022B03D1100901
:1056900010F0EFFD04002378174A1800002351781A
:1056A00081421DD161788C4691788C4518D1A178C2
:1056B0008C46D178614513D100290ED10E4A9B004A
:1056C000D05CB84208D93B0032000C490C4809F0C4
:1056D000E9FB6B6A18600020F8BDE1780029EDD085
:1056E00001330432152BDAD132000649044809F09F
:1056F000D9FBEEE7339B0310540203102C00031078
:10570000A427031045000310F0B505000E0085B076
:10571000002A45D003210A4242D1FF2053680340AA
:105720002F2B3DD19268203B14001C40022C08D145
:1057300031002800FFF7A2FF013C8440200005B0A3
:10574000F0BD002A2CD014000C4001940A4227D14D
:10575000516801409F2923D1D76879680140A12968
:105760001ED1310092682800FFF788FF0124844091
:105770003800A221083003AA29F02AFF019F0090D7
:10578000009B9F42DADA039AB9000F238A58280057
:105790003100FFF773FF0123834001371C43EFE71C
:1057A00032000449044809F07DFB6B6A002418604C
:1057B000C4E7C0465D000310A4270310F0B585B010
:1057C00004000D00100003A91E0029F0C9FE0028E6
:1057D00009D12A000B490C4809F064FB636A186080
:1057E000002005B0F0BD039807F04CFB0300B34365
:1057F000F7D0054F03002A0038000449009609F04D
:1058000051FBEBE778000310A4270310900003106E
:1058100070B5038CC46A032B03D10023856A9D42B3
:1058200005D18B00E250FAF73BFE012070BD9E00CF
:10583000A659964201D00133F1E70020F6E710B5F2
:10584000FAF784FE10BD8BB270B505000C0003841E
:105850004262032B05D1826A0021C06A920027F0C0
:10586000BDFE211F4B42594128000131FAF7F5FDD9
:1058700028000021FAF73EFE70BD00000F2370B52E
:1058800013400500022B0AD0114B0A0011481900E1
:1058900009F008FB00246B6A1860200070BD00232B
:1058A000816A12098B420AD12B8C0024042BF4D17B
:1058B0000949084809F0F6FA6B6A1860EDE7E86AEA
:1058C0009C002058824201D11C00E6E70133E9E741
:1058D000BB000310A4270310D000031010B5040070
:1058E000024809F055FA206010BDC046A4270310F5
:1058F000F7B50C000600002512490192042C09D8C6
:10590000AC420BD0019AAB00D0580F230340022BBE
:1059100006D00D49706AFFF7E1FF00242000FEBDAC
:10592000000910F0A6FC070029F09AFE0228F0D129
:105930003B78722BEDD12B007A7830339A42E8D144
:105940000135DDE7E70003101A010310F0B50E0082
:1059500087B0040005A930001F00019210F08EFCF2
:10596000019B0500002B0FD18F4B9E4205D1BF211B
:1059700009022000FAF7B2FDBFE0C4239B009E425B
:1059800000D085E08949F4E7019B012B00D096E027
:105990009423FF339E4210D101003A682000FFF7A4
:1059A0006DFF01002000FAF73DFE002800D0A4E0C2
:1059B0007F49606AFFF792FF9FE0CC235B009E4225
:1059C00009D101003A682000FFF758FF01002000CC
:1059D000FAF768FEE9E7CF235B009E420BD1903BCC
:1059E00001003A682000FF3BFFF748FE8E21C0000F
:1059F000C9010143BDE70378622B30D1059B032B1E
:105A000007D0052B2BD1C3785F2B28D103796E2BC0
:105A100025D1012600226978664B76425878884263
:105A200005D1A87884469878844500D11E78013243
:105A300003330E2AF2D1731C2AD03A6829002000C1
:105A4000FFF71CFF059B0200052B02D12B79772B5A
:105A50001ED0002331002000FAF701FEA5E7B6238F
:105A6000FF339E4201D1544983E7DB235B009E4212
:105A700001D152497DE7524B9E4212D129002000AC
:105A80003A68FFF741FEFF231B02B421184214D0ED
:105A9000019B2A004B494C4809F004FA636A1860DC
:105AA0002BE0782EF4D1290020003A68FFF72CFE75
:105AB000FF231B021842EBD1BC21090299E7019B8D
:105AC000022B00D004E10F227B6813403F4A022BD7
:105AD0004DD1964213D101003A680D332000FFF7F3
